{
  "contractName": "IdentityTracker",
  "abi": [
    {
      "constant": true,
      "inputs": [],
      "name": "identityCount",
      "outputs": [
        {
          "name": "",
          "type": "uint256"
        }
      ],
      "payable": false,
      "stateMutability": "view",
      "type": "function"
    },
    {
      "constant": true,
      "inputs": [
        {
          "name": "",
          "type": "uint256"
        }
      ],
      "name": "IdentityStore",
      "outputs": [
        {
          "name": "count",
          "type": "uint256"
        },
        {
          "name": "addresser",
          "type": "string"
        },
        {
          "name": "name",
          "type": "string"
        },
        {
          "name": "phone",
          "type": "string"
        },
        {
          "name": "email",
          "type": "string"
        },
        {
          "name": "password",
          "type": "string"
        }
      ],
      "payable": false,
      "stateMutability": "view",
      "type": "function"
    },
    {
      "anonymous": false,
      "inputs": [
        {
          "indexed": false,
          "name": "id",
          "type": "uint256"
        },
        {
          "indexed": false,
          "name": "manufacturer",
          "type": "string"
        },
        {
          "indexed": false,
          "name": "status",
          "type": "string"
        }
      ],
      "name": "IdentityCreate",
      "type": "event"
    },
    {
      "constant": false,
      "inputs": [
        {
          "name": "_addresser",
          "type": "string"
        },
        {
          "name": "_name",
          "type": "string"
        },
        {
          "name": "_phone",
          "type": "string"
        },
        {
          "name": "_email",
          "type": "string"
        },
        {
          "name": "_password",
          "type": "string"
        }
      ],
      "name": "createIdentity",
      "outputs": [
        {
          "name": "",
          "type": "uint256"
        }
      ],
      "payable": false,
      "stateMutability": "nonpayable",
      "type": "function"
    },
    {
      "constant": true,
      "inputs": [
        {
          "name": "_id",
          "type": "uint256"
        },
        {
          "name": "_addresser",
          "type": "string"
        }
      ],
      "name": "getIdentity",
      "outputs": [
        {
          "name": "",
          "type": "string"
        },
        {
          "name": "",
          "type": "string"
        },
        {
          "name": "",
          "type": "string"
        },
        {
          "name": "",
          "type": "string"
        },
        {
          "name": "",
          "type": "string"
        }
      ],
      "payable": false,
      "stateMutability": "view",
      "type": "function"
    },
    {
      "constant": true,
      "inputs": [],
      "name": "getidentityCount",
      "outputs": [
        {
          "name": "",
          "type": "uint256"
        }
      ],
      "payable": false,
      "stateMutability": "view",
      "type": "function"
    }
  ],
  "bytecode": "0x6080604052600060015534801561001557600080fd5b50611234806100256000396000f3fe60806040526004361061006c5763ffffffff7c010000000000000000000000000000000000000000000000000000000060003504166316146e6a81146100715780632d22cafd1461035257806338678ba514610367578063872bec851461037c578063b8df43ae14610646575b600080fd5b34801561007d57600080fd5b50610340600480360360a081101561009457600080fd5b8101906020810181356401000000008111156100af57600080fd5b8201836020820111156100c157600080fd5b803590602001918460018302840111640100000000831117156100e357600080fd5b91908080601f016020809104026020016040519081016040528093929190818152602001838380828437600092019190915250929594936020810193503591505064010000000081111561013657600080fd5b82018360208201111561014857600080fd5b8035906020019184600183028401116401000000008311171561016a57600080fd5b91908080601f01602080910402602001604051908101604052809392919081815260200183838082843760009201919091525092959493602081019350359150506401000000008111156101bd57600080fd5b8201836020820111156101cf57600080fd5b803590602001918460018302840111640100000000831117156101f157600080fd5b91908080601f016020809104026020016040519081016040528093929190818152602001838380828437600092019190915250929594936020810193503591505064010000000081111561024457600080fd5b82018360208201111561025657600080fd5b8035906020019184600183028401116401000000008311171561027857600080fd5b91908080601f01602080910402602001604051908101604052809392919081815260200183838082843760009201919091525092959493602081019350359150506401000000008111156102cb57600080fd5b8201836020820111156102dd57600080fd5b803590602001918460018302840111640100000000831117156102ff57600080fd5b91908080601f016020809104026020016040519081016040528093929190818152602001838380828437600092019190915250929550610887945050505050565b60408051918252519081900360200190f35b34801561035e57600080fd5b50610340610a6f565b34801561037357600080fd5b50610340610a76565b34801561038857600080fd5b506104366004803603604081101561039f57600080fd5b813591908101906040810160208201356401000000008111156103c157600080fd5b8201836020820111156103d357600080fd5b803590602001918460018302840111640100000000831117156103f557600080fd5b91908080601f016020809104026020016040519081016040528093929190818152602001838380828437600092019190915250929550610a7c945050505050565b60405180806020018060200180602001806020018060200186810386528b818151815260200191508051906020019080838360005b8381101561048357818101518382015260200161046b565b50505050905090810190601f1680156104b05780820380516001836020036101000a031916815260200191505b5086810385528a5181528a516020918201918c019080838360005b838110156104e35781810151838201526020016104cb565b50505050905090810190601f1680156105105780820380516001836020036101000a031916815260200191505b5086810384528951815289516020918201918b019080838360005b8381101561054357818101518382015260200161052b565b50505050905090810190601f1680156105705780820380516001836020036101000a031916815260200191505b5086810383528851815288516020918201918a019080838360005b838110156105a357818101518382015260200161058b565b50505050905090810190601f1680156105d05780820380516001836020036101000a031916815260200191505b50868103825287518152875160209182019189019080838360005b838110156106035781810151838201526020016105eb565b50505050905090810190601f1680156106305780820380516001836020036101000a031916815260200191505b509a505050505050505050505060405180910390f35b34801561065257600080fd5b506106706004803603602081101561066957600080fd5b5035610e8a565b60405180878152602001806020018060200180602001806020018060200186810386528b818151815260200191508051906020019080838360005b838110156106c35781810151838201526020016106ab565b50505050905090810190601f1680156106f05780820380516001836020036101000a031916815260200191505b5086810385528a5181528a516020918201918c019080838360005b8381101561072357818101518382015260200161070b565b50505050905090810190601f1680156107505780820380516001836020036101000a031916815260200191505b5086810384528951815289516020918201918b019080838360005b8381101561078357818101518382015260200161076b565b50505050905090810190601f1680156107b05780820380516001836020036101000a031916815260200191505b5086810383528851815288516020918201918a019080838360005b838110156107e35781810151838201526020016107cb565b50505050905090810190601f1680156108105780820380516001836020036101000a031916815260200191505b50868103825287518152875160209182019189019080838360005b8381101561084357818101518382015260200161082b565b50505050905090810190601f1680156108705780820380516001836020036101000a031916815260200191505b509b50505050505050505050505060405180910390f35b6001805481018082556040805160c08101825282815260208082018a81528284018a9052606083018990526080830188905260a0830187905260009485528482529284208251815592518051949592946108e8938501929190910190611170565b5060408201518051610904916002840191602090910190611170565b5060608201518051610920916003840191602090910190611170565b506080820151805161093c916004840191602090910190611170565b5060a08201518051610958916005840191602090910190611170565b509050507f7b9aa8ea81a1b5dca4315f336e401f7ce757bfc733b0562bb2106021f823b37b6001548787604051808481526020018060200180602001838103835285818151815260200191508051906020019080838360005b838110156109c95781810151838201526020016109b1565b50505050905090810190601f1680156109f65780820380516001836020036101000a031916815260200191505b50838103825284518152845160209182019186019080838360005b83811015610a29578181015183820152602001610a11565b50505050905090810190601f168015610a565780820380516001836020036101000a031916815260200191505b509550505050505060405180910390a195945050505050565b6001545b90565b60015481565b6060806060806060856040516020018082805190602001908083835b60208310610ab75780518252601f199092019160209182019101610a98565b6001836020036101000a038019825116818451168082178552505050505050905001915050604051602081830303815290604052805190602001206000808981526020019081526020016000206001016040516020018082805460018160011615610100020316600290048015610b655780601f10610b43576101008083540402835291820191610b65565b820191906000526020600020905b815481529060010190602001808311610b51575b505091505060405160208183030381529060405280519060200120141515610b8c57600080fd5b600087815260208181526040918290206001808201805485516002938216156101000260001901909116839004601f81018690048602820186019096528581529094918301936003840193600481019360059091019291879190830182828015610c375780601f10610c0c57610100808354040283529160200191610c37565b820191906000526020600020905b815481529060010190602001808311610c1a57829003601f168201915b5050875460408051602060026001851615610100026000190190941693909304601f8101849004840282018401909252818152959a5089945092508401905082828015610cc55780601f10610c9a57610100808354040283529160200191610cc5565b820191906000526020600020905b815481529060010190602001808311610ca857829003601f168201915b5050865460408051602060026001851615610100026000190190941693909304601f810184900484028201840190925281815295995088945092508401905082828015610d535780601f10610d2857610100808354040283529160200191610d53565b820191906000526020600020905b815481529060010190602001808311610d3657829003601f168201915b5050855460408051602060026001851615610100026000190190941693909304601f810184900484028201840190925281815295985087945092508401905082828015610de15780601f10610db657610100808354040283529160200191610de1565b820191906000526020600020905b815481529060010190602001808311610dc457829003601f168201915b5050845460408051602060026001851615610100026000190190941693909304601f810184900484028201840190925281815295975086945092508401905082828015610e6f5780601f10610e4457610100808354040283529160200191610e6f565b820191906000526020600020905b815481529060010190602001808311610e5257829003601f168201915b50505050509050945094509450945094509295509295909350565b600060208181529181526040908190208054600180830180548551600293821615610100026000190190911692909204601f8101879004870283018701909552848252919492939092830182828015610f245780601f10610ef957610100808354040283529160200191610f24565b820191906000526020600020905b815481529060010190602001808311610f0757829003601f168201915b50505060028085018054604080516020601f6000196101006001871615020190941695909504928301859004850281018501909152818152959695945090925090830182828015610fb65780601f10610f8b57610100808354040283529160200191610fb6565b820191906000526020600020905b815481529060010190602001808311610f9957829003601f168201915b5050505060038301805460408051602060026001851615610100026000190190941693909304601f81018490048402820184019092528181529495949350908301828280156110465780601f1061101b57610100808354040283529160200191611046565b820191906000526020600020905b81548152906001019060200180831161102957829003601f168201915b5050505060048301805460408051602060026001851615610100026000190190941693909304601f81018490048402820184019092528181529495949350908301828280156110d65780601f106110ab576101008083540402835291602001916110d6565b820191906000526020600020905b8154815290600101906020018083116110b957829003601f168201915b5050505060058301805460408051602060026001851615610100026000190190941693909304601f81018490048402820184019092528181529495949350908301828280156111665780601f1061113b57610100808354040283529160200191611166565b820191906000526020600020905b81548152906001019060200180831161114957829003601f168201915b5050505050905086565b828054600181600116156101000203166002900490600052602060002090601f016020900481019282601f106111b157805160ff19168380011785556111de565b828001600101855582156111de579182015b828111156111de5782518255916020019190600101906111c3565b506111ea9291506111ee565b5090565b610a7391905b808211156111ea57600081556001016111f456fea165627a7a72305820dab28a5b6773945fb77189ccae4e6442841a491c01fb614513f197e73a4647d10029",
  "source": "pragma solidity >=0.4.21 <0.7.0;\r\nimport './IdentityLibrary.sol';\r\n\r\ncontract IdentityTracker {\r\n    \r\n    mapping(uint => IdentityLibrary.Identity) public IdentityStore;\r\n    uint256 public identityCount= 0;\r\n    \r\n    function createIdentity(\r\n        string memory _addresser,\r\n        string memory _name,\r\n        string memory _phone,\r\n        string memory _email,\r\n        string memory _password\r\n        ) public returns(uint256) {\r\n        identityCount++;\r\n        IdentityStore[identityCount]= IdentityLibrary.Identity(identityCount, _addresser, _name, _phone, _email, _password);\r\n        emit IdentityCreate(identityCount, _addresser, _name);\r\n    }\r\n    function getIdentity(uint _id,string memory _addresser) view public returns(string memory, string memory, string memory, string memory, string memory) {\r\n        require(keccak256(abi.encodePacked((IdentityStore[_id].addresser))) == keccak256(abi.encodePacked((_addresser))));\r\n        return (IdentityStore[_id].addresser, IdentityStore[_id].name, IdentityStore[_id].phone, IdentityStore[_id].email, IdentityStore[_id].password);\r\n    }\r\n\r\n    function getidentityCount() view public returns(uint) {\r\n        return identityCount;\r\n    }\r\n\r\n    event IdentityCreate(uint id, string manufacturer, string status);\r\n}",
  "sourcePath": "D:/Asset_Tracker/Asset-Tracker-Blockchain-master/contracts/IdentityTracker.sol",
  "compiler": {
    "name": "solc",
    "version": "0.5.0+commit.1d4f565a.Emscripten.clang"
  },
  "schemaVersion": "3.0.1",
  "updatedAt": "2020-02-02T04:52:44.274Z",
  "devdoc": {
    "methods": {}
  },
  "userdoc": {
    "methods": {}
  }
}